:100000000C9434000C945A000C945A000C945A002E
:100010000C945A000C945A000C9417030C945A0038
:100020000C945A000C945A000C945A000C944F09EA
:100030000C945A000C945A000C94B3080C945A0077
:100040000C945A000C945A000C945A000C945A00C8
:100050000C945A000C945A000C945A000C94710998
:100060000C945A000C945A0011241FBECFEFD8E014
:10007000DEBFCDBF14BE88E10FB6F8948093600058
:10008000109260000FBE11E0A0E0B1E0ECEEF8E2EB
:1000900002C005900D92A431B107D9F711E0A4E197
:1000A000B1E001C01D92AC37B107E1F70E94151312
:1000B0000C9474140C9400000895CF93DF93EC011A
:1000C000CB0121E030E030931901209318010E9408
:1000D000D405809316011092170188818093140132
:1000E00010921501DF91CF910895809118019091A0
:1000F0001901019709F00895109219011092180141
:100100008091160190911701C39784F0809114019A
:1001100090911501892BA1F481E10E942B0984E6BD
:1001200090E00E94900480E00C942B0980911401CF
:1001300090911501892B41F481E00E942B09EFCFAA
:1001400084E10E942B09EBCF80E10E942B09E7CFCD
:10015000089580E090E008950895CF93F89414B83E
:1001600017B81AB815B818B81BB8529A5A9A14BCCE
:1001700085E085BD8FEF87BD22E020936E00109251
:100180008000109281008FE89BE09093890080931B
:10019000880020936F005398239881EA8093B000E1
:1001A0002093B1001092B4001092B3008BE080BF96
:1001B00083E080937F0086E080937C0083E88093D7
:1001C0007A0080917A00806480937A0080917A002E
:1001D00086FDFCCF10927C0083EA80937A0081E058
:1001E00080937B0081E090E00E940D148F3F11F01E
:1001F0008093660010924501C1E0C0931E01C09338
:10020000620110923C011092760180E990E00E9418
:100210000D1480933B0180913B01887311F0C093D2
:100220003B0110926601109265018FEF90E0909370
:100230006401809363011092410110924201109277
:1002400043011092440181E080931C0182E49FE00D
:10025000909375018093740180EB90E00E940D14DF
:10026000C82F81EB90E00E940D14382F20E02C2B3A
:10027000309378012093770185E090E00E940D147F
:1002800080937B0189E090E00E940D1480936701C8
:100290008CE090E00E940D148093790184E190E05D
:1002A0000E940D1480937A0180E290E00E940D1468
:1002B000C82F81E290E00E940D143C2F20E0282BF3
:1002C000309347012093460180E590E00E940D1491
:1002D000C82F81E590E00E940D143C2F20E0282BD0
:1002E0003093200120931F0182E290E00E940D14C0
:1002F000C82F83E290E00E940D143C2F20E0282BB1
:10030000309349012093480182E590E00E940D144A
:10031000C82F83E590E00E940D143C2F20E0282B8D
:10032000309322012093210184E290E00E940D1479
:10033000C82F85E290E00E940D143C2F20E0282B6E
:1003400030934B0120934A0184E590E00E940D1404
:10035000C82F85E590E00E940D143C2F20E0282B4B
:10036000309324012093230186E290E00E940D1433
:10037000C82F87E290E00E940D143C2F20E0282B2C
:1003800030934D0120934C0186E590E00E940D14BE
:10039000C82F87E590E00E940D143C2F20E0282B09
:1003A000309326012093250188E290E00E940D14ED
:1003B000C82F89E290E00E940D143C2F20E0282BEA
:1003C00030934F0120934E0188E590E00E940D1478
:1003D000C82F89E590E00E940D143C2F20E0282BC7
:1003E00030932801209327018AE290E00E940D14A7
:1003F000C82F8BE290E00E940D143C2F20E0282BA8
:1004000030935101209350018AE590E00E940D1431
:10041000C82F8BE590E00E940D143C2F20E0282B84
:1004200030932A01209329018CE290E00E940D1460
:10043000C82F8DE290E00E940D143C2F20E0282B65
:1004400030935301209352018CE590E00E940D14EB
:10045000C82F8DE590E00E940D143C2F20E0282B42
:1004600030932C0120932B018EE290E00E940D141A
:10047000C82F8FE290E00E940D143C2F20E0282B23
:1004800030935501209354018EE590E00E940D14A5
:10049000C82F8FE590E00E940D143C2F20E0282B00
:1004A00030932E0120932D0180E390E00E940D14E3
:1004B000C82F81E390E00E940D143C2F20E0282BF0
:1004C000309357012093560180E690E00E940D146E
:1004D000C82F81E690E00E940D143C2F20E0282BCD
:1004E0003093300120932F0182E390E00E940D149D
:1004F000C82F83E390E00E940D143C2F20E0282BAE
:10050000309359012093580182E690E00E940D1427
:10051000C82F83E690E00E940D143C2F20E0282B8A
:10052000309332012093310184E390E00E940D1456
:10053000C82F85E390E00E940D143C2F20E0282B6B
:1005400030935B0120935A0184E690E00E940D14E1
:10055000C82F85E690E00E940D143C2F20E0282B48
:10056000309334012093330186E390E00E940D1410
:10057000C82F87E390E00E940D143C2F20E0282B29
:1005800030935D0120935C0186E690E00E940D149B
:10059000C82F87E690E00E940D143C2F20E0282B06
:1005A000309336012093350188E390E00E940D14CA
:1005B000C82F89E390E00E940D143C2F20E0282BE7
:1005C00030935F0120935E0188E690E00E940D1455
:1005D000C82F89E690E00E940D143C2F20E0282BC4
:1005E00030933801209337018AE390E00E940D1484
:1005F000C82F8BE390E00E940D143C2F20E0282BA5
:1006000030936101209360018AE690E00E940D140E
:10061000C82F8BE690E00E940D143C2F20E0282B81
:1006200030933A01209339017894CF9108951F9225
:100630000F920FB60F9211248F9388E10FB6F894A2
:1006400080936000109260000FBE8F910F900FBEDC
:100650000F901F9018957C01EB01D12C88248A946F
:1006600086E0982E93E8A92E08E110E029E2B22E48
:1006700034E0C32E80911C018330B9F1843008F03E
:100680003EC0813009F4BEC008F44BC080914501E2
:10069000811100C1F89490927C00A0927A00809120
:1006A0007A00806480937A0080917A0086FDFCCF86
:1006B000209178003091790078942B3A92E03907B4
:1006C0000CF002C12938E2E03E070CF004C12736E5
:1006D00032400CF4DFC0559A549A3B9A3A9A3D98AE
:1006E0003C9880911C01833049F6DD2009F4D9C083
:1006F000C0921C01DD24D394FE010995BBCF853047
:1007000009F462C0C8F3863009F0B4CF80911A01B1
:10071000811194C01092B3001092B40010921B018A
:10072000A9CFF89480B7877F80BF80917A008F77B8
:1007300080937A0014B817B81AB815B818B81BB84F
:100740000FB6F894A895009360000FBEB0926000B9
:100750008091600080648093600083B7817F8460B3
:1007600083BFF89483B7816083BF7894889583B7FB
:100770008E7F83BF789410924501529A5A9A809145
:100780007A00806880937A0087E592E00197F1F71C
:1007900000C0000080B7886180BF559A549A3B9A88
:1007A0003A9A3D9A3C9AEFE1FEE43197F1F700C0A6
:1007B000000080914501811177C0559854983B986D
:1007C0003A983D983C9856CF4899F7CF559A549807
:1007D0003B983A983D983C988FEC97E00197F1F759
:1007E00000C00000559854983B983A983D983C9822
:1007F0009FEFE1EEF4E09150E040F040E1F700C0FF
:10080000000038CF559854983B9A3A9A3D983C98B6
:10081000EFECF7E03197F1F700C0000055985498DD
:100820003B983A983D983C98FFEF21EE84E0F150D8
:1008300020408040E1F700C000001CCF90911A01D9
:1008400080911B01981709F415CF80911A018093AC
:100850001B0180911A01813009F444C080911A0172
:100860001092B3008092B400823009F44CC08092A0
:10087000B3008092B4008FE295E70197F1F700C0D2
:10088000000080917A01909179019093B300809358
:10089000B400F0CE559A549A3B983A983D983C98BB
:1008A000E9CEF701099524CF559A549A3B983A9886
:1008B0003D983C98FFEF20E782E0F15020408040D7
:1008C000E1F700C0000079CF559854983B9A3A9AC6
:1008D0003D983C98CFCE559854983B983A983D9A7D
:1008E0003C9AC8CE8092B3001092B4008FE295E794
:1008F0000197F1F700C0000080917B018093B30065
:100900001092B400B7CEEFE2F5E73197F1F700C0EF
:100910000000809167011092B3008093B400AACECA
:1009200007C0EFECF7E03197F1F700C00000019746
:100930000097B9F708958093B3006093B4000895C9
:100940008FEF8093B3008093B4008FEC97E0019712
:10095000F1F700C000008FEC97E00197F1F700C0BD
:1009600000008FEC97E00197F1F700C000008FECDA
:1009700097E00197F1F700C000008FEC97E0019736
:10098000F1F700C000008FEC97E00197F1F700C08D
:1009900000008FEC97E00197F1F700C000008FECAA
:1009A00097E00197F1F700C000008FEC97E0019706
:1009B000F1F700C000008FEC97E00197F1F700C05D
:1009C00000008FEC97E00197F1F700C000008FEC7A
:1009D00097E00197F1F700C000008FEC97E00197D6
:1009E000F1F700C000008FEC97E00197F1F700C02D
:1009F00000008FEC97E00197F1F700C00000089528
:100A00008091450181111FC0F89487E080937C009C
:100A100083E880937A0080917A00806480937A00E2
:100A200080917A0086FDFCCF20917800309179008A
:100A300010927C0083EA80937A0081E080937B00AF
:100A40007894C90108952FEF3FEFFBCF80914501C6
:100A500081111FC0F89488EC80937C0087E8809314
:100A60007A0080917A00806480937A0080917A0085
:100A700086FDFCCF209178003091790010927C00A7
:100A800083EA80937A0081E080937B007894C901A7
:100A900008952FEF3FEFFBCF1F93CF93DF9360E0DD
:100AA00070E080E013EAD1E0C6E0B3E8E1E0F0E016
:100AB00040E850E0F894C0937C00B0937A009091A5
:100AC0007A00906490937A0090917A0096FDFCCF22
:100AD0002091780030917900A22FA17090917A0036
:100AE000906490937A0090917A0096FDFCCF2091CB
:100AF00078003091790010927C0010937A00D093A6
:100B00007B00789421703327A21303C04150510910
:100B100089F6AA2339F09F01062E01C0220F0A94FC
:100B2000EAF7822B6F5F7F4F6830710509F0C0CF05
:100B3000DF91CF911F91089580910601982F990F11
:100B4000990F990F982720911D01822F86958695E0
:100B500089279295969597708927809306012F5F34
:100B600020931D0108958093060108958091450109
:100B7000811117C0F89486E080937C0083E880930D
:100B80007A0080917A00806480937A0080917A0064
:100B900086FDFCCF20917800309179007894C901CE
:100BA00008952FEF3FEFFBCF2F923F924F925F922E
:100BB0006F927F928F929F92AF92BF92CF92DF926D
:100BC000EF92FF920F931F93CF93DF9300D000D04B
:100BD00000D0CDB7DEB75C01FC010280F381E02DCF
:100BE000FE83ED83E43823E0F2070CF0D8C0809157
:100BF0001F01909120018E179F0708F4B4C1009146
:100C00002101109122010E171F0708F440C2009124
:100C10002301109124010E171F0708F441C200910F
:100C20002501109126010E171F0708F442C20091FA
:100C30002701109128010E171F0708F443C20091E5
:100C4000290110912A010E171F0708F496C100917F
:100C50002B0110912C010E171F0708F43CC20091C4
:100C60002D0110912E010E171F0708F43DC20091AF
:100C70002F01109130010E171F0708F43EC200919A
:100C80003101109132010E171F0708F43FC2009185
:100C90003301109134010E171F0708F440C2009170
:100CA0003501109136010E171F0708F446C2009156
:100CB0003701109138010E171F0708F447C2009141
:100CC000390110913A010E171F0708F448C2198222
:100CD0001A8280ED8B8390E49C835CE0E52EF12CFE
:100CE000F701EE0FFF1FE15EFE4F80819181B80199
:100CF000681B790B80E090E00E9405119B01AC011C
:100D00000E94470E3B014C01ED81FE81BF01882707
:100D100077FD8095982F0E945A106B017C01B801D5
:100D200080E090E00E9405111B012C0179816A810D
:100D30009B818C81272F362F492F582F662D772D99
:100D4000882D992D0E94A30E9B01AC01C201B10117
:100D50000E94730E9B01AC01C701B6010E94730E85
:100D600020E030E040E251E40E94A30E0E94B61061
:100D70008B01662D772D882D992D0E94B610AB0121
:100D8000BC01C801BA010E943213882777FD809503
:100D9000982F0E945A100E94BE0C062FE5C00FEF3C
:100DA000F5018080918080914601909147018815DE
:100DB000990508F46EC0E0904801F0904901E814EC
:100DC000F90408F468C1E0904A01F0904B01E8147E
:100DD000F90408F469C1E0904C01F0904D01E81469
:100DE000F90408F46AC1E0904E01F0904F01E81454
:100DF000F90408F46BC1E0905001F0905101E8143F
:100E0000F90408F4D6C0E0905201F0905301E814C0
:100E1000F90408F464C1E0905401F0905501E8141D
:100E2000F90408F465C1E0905601F0905701E81408
:100E3000F90408F466C1E0905801F0905901E814F3
:100E4000F90408F467C1E0905A01F0905B01E814DE
:100E5000F90408F468C1E0905C01F0905D01E814C9
:100E6000F90408F465C1E0905E01F0905F01E814B8
:100E7000F90408F466C1E0906001F0906101E814A3
:100E8000F90408F467C11AE50F3F31F4812F8F5D33
:100E900051C010E00F3FD1F32D813E81B901882769
:100EA00077FD8095982F0E945A106B017C01602F6E
:100EB00070E080E090E00E9405114B015C01A70109
:100EC000960160E070E081E694E40E94730E9B015D
:100ED000AC01C501B4010E94A30E4B015C01612F5E
:100EE00070E080E090E00E9405112B013C0120E0C1
:100EF00030E04FE254E4C701B6010E94730E9B013B
:100F0000AC01C301B2010E94A30E9B01AC01C5015B
:100F1000B4010E94470E20E030E048E453E40E9410
:100F2000880F20E030E044E052E40E94470E0E9427
:100F3000BE0C862F26960FB6F894DEBF0FBECDBF2F
:100F4000DF91CF911F910F91FF90EF90DF90CF90A5
:100F5000BF90AF909F908F907F906F905F904F90D9
:100F60003F902F90089500E02D813E812D3B32402F
:100F70000CF016CF802F8F5DDDCF65E085E090E02F
:100F80007C0131E0E31AF10870E080E090E00E941B
:100F9000051120E030E040E05FE30E94A30E20E076
:100FA00030E0A9010E94470E69837A838B839C837A
:100FB00097CE85E0382EE5E0F0E0EE0FFF1FEC5B0A
:100FC000FE4F80819181B701681B790B80E090E032
:100FD0000E9405119B01AC010E94470E262EC72ED0
:100FE000D82E192FB401882777FD8095982F0E945D
:100FF0005A102B013C01B70180E090E00E940511DE
:101000004B015C01632D70E080E090E00E940511CF
:1010100020E030E040E05FE30E94A30E20E030E0FB
:10102000A9010E94470E222D3C2D4D2D512F0E94CB
:10103000A30E9B01AC01C501B4010E94730E9B017C
:10104000AC01C301B2010E94730E20E030E040E227
:1010500051E40E94A30E0E94B6107B01622D7C2DEC
:101060008D2D912F0E94B610AB01BC01C701BA01B2
:101070000E943213882777FD8095982F0E945A107E
:101080000E94BE0C162F6F3F09F004CF73CF61E0B2
:1010900081E090E075CF33243394E1E0F0E08DCF30
:1010A00062E082E090E06CCF32E0332EE2E0F0E0EC
:1010B00084CF63E083E090E063CF23E0322EE3E06F
:1010C000F0E07BCF64E084E090E05ACF94E0392EEA
:1010D000E4E0F0E072CF66E086E090E051CF16E009
:1010E000312EE6E0F0E069CF67E087E090E048CF9E
:1010F000B7E03B2EE7E0F0E060CF68E088E090E00A
:101100003FCFA8E03A2EE8E0F0E057CF69E089E071
:1011100090E036CFF9E03F2EE9E0F0E04ECF6AE014
:101120008AE090E02DCFEAE03E2EEAE0F0E045CF05
:101130007BE0372EEBE0F0E040CF6BE08BE090E01F
:101140001FCF6CE0362EECE0F0E037CF6CE08CE0A7
:1011500090E016CF5DE0352EEDE0F0E02ECF6DE0B3
:101160008DE090E00DCF1F920F920FB60F921124D9
:101170002F933F934F935F936F937F938F939F939F
:10118000AF93BF93EF93FF93209165013091660178
:101190008091630190916401280F391F309366019B
:1011A000209365018FEF90E0909364018093630139
:1011B0008FEF87BD8091410190914201A091430141
:1011C000B09144010196A11DB11D809341019093FE
:1011D0004201A0934301B0934401809145018111E4
:1011E0000BC080917401909175018217930720F4D0
:1011F00080911C01843089F0FF91EF91BF91AF91F4
:101200009F918F917F916F915F914F913F912F911E
:101210000F900FBE0F901F901895E0910201F09172
:1012200003010995009741F30E943B0C811109C00D
:101230000E94FD139927909364018093630187BDF9
:10124000DBCFE0910001F091010109951092660158
:1012500010926501D1CF80FF11C0559A81FF11C056
:10126000549A82FF11C03B9A83FF11C03A9A84FFBF
:1012700011C03D9A85FD11C03C980895559881FD97
:10128000EFCF549882FDEFCF3B9883FDEFCF3A9894
:1012900084FDEFCF3D9885FFEFCF3C9A08951F92D4
:1012A0000F920FB60F9211248F939F93109281008B
:1012B000109285001092840081E080931E0180933B
:1012C00062011092450110927C0093EA90937A009B
:1012D00080937B009F918F910F900FBE0F901F9076
:1012E00018951F920F920FB60F9211242F933F93D0
:1012F0004F935F936F937F938F939F93AF93BF931E
:10130000CF93DF93EF93FF9320918400309185007A
:1013100041E04093450180911E018823A9F110927C
:101320008500109284004093810010927601109203
:101330001E01809162018823A1F080917A0086FDD0
:10134000FCCF809178009091790090934001809338
:101350003F0181E080937C0093EA90937A00809330
:101360007B00FF91EF91DF91CF91BF91AF919F9162
:101370008F917F916F915F914F913F912F910F903E
:101380000FBE0F901F901895C90187589109843797
:10139000994008F057C026583109A4EFB0E00E94E8
:1013A0002613883008F485C040931E0180916201A5
:1013B00081115CC080913C01E82FF0E0E859FE4FBC
:1013C0009091760190838F5F80933C018C3049F639
:1013D0001092810010928500109284004093620167
:1013E00010924501C0917201D091730188E691E09D
:1013F0000E94820BC817D90709F0B3CF8091710101
:1014000087FF68C0982F9858933030F053982398EE
:101410001092B4001092B300863809F4BFC008F0EF
:1014200063C0833809F41BC108F010C1803809F08B
:1014300098CF80916E008D7F80936E0016BCE0E0A7
:10144000F0E70995109281001092850010928400B7
:1014500040931E01409362011092450110927C005E
:1014600083EA80937A0040937B007BCF80917A005F
:1014700086FDFCCF809178009091790090933E0199
:1014800080933D0110927C0083EA80937A0081E092
:1014900080937B00909176019923B9F0109281009E
:1014A0001092850010928400809362011092450191
:1014B00058CF21E030E001C0220F8A95EAF78091F1
:1014C0007601822B809376014CCF109262011092AC
:1014D0003C0147CFE0910401F09105016DE371E01B
:1014E00088E691E009953DCF883809F4BBC008F43F
:1014F000A9C0893809F47BC08A3809F032CF8091BD
:101500006801823009F4C9C008F059C081114AC08D
:1015100080911C01863009F024CF6091770180EB27
:1015200090E00E9415146091780181EB90E00E9498
:10153000151460917B0185E090E00E941514609184
:10154000670189E090E00E941514609179018CE0B8
:1015500090E00E94151460917A0184E190E00E946D
:101560001514539823981092B4001092B30081E0A0
:1015700080931C0180916801882309F4F2CE809148
:101580001C01863009F4EDCE539A239A1092B400D0
:101590001092B30086E080931C01E3CE85E0809337
:1015A0001C01DFCE813041F78091690190916A0181
:1015B000909378018093770110921A01E0CF8330E5
:1015C00009F484C08430C1F680911A0190916E01B3
:1015D000833009F470C080916D0110921B0123E0EB
:1015E00020931A018093790190937A01C8CF80915A
:1015F0001C01863099F0539A239A1092B4001092ED
:10160000B300559854983B983A983D983C9810925E
:101610001A0110921B0186E080931C0181E090E08A
:101620000090680102C0880F991F0A94E2F7209188
:1016300077013091780182239323892B51F5109201
:101640001A018FCE82E080931C018BCE8438F1F09A
:10165000853809F086CE81E080931C0182CEE0E0DF
:10166000F0E0099580911C01833009F47ACE8091D5
:101670001C01843009F475CE539A239A1092B40059
:101680001092B30083E080931C016BCE10921C017A
:1016900068CE81E080931A0164CE80911A01813076
:1016A00019F180916B0110921B0191E090931A0146
:1016B00080937B0164CF80917A0198138CCF8091C5
:1016C0006D0120917901821388CF59CF80911A0141
:1016D000823089F080916C0110921B0192E090930E
:1016E0001A01809367014BCF80916B0190917B0130
:1016F0008913D9CF44CF80916C01909167018913F0
:10170000EBCF3DCFFC0180812FEF3FEF2827022E4A
:101710002295207F2025032E322F22952F7002261E
:10172000269532272327220F220F220F2025818181
:101730002827022E2295207F2025032E322F229546
:101740002F700226269532272327220F220F220FE1
:10175000202582812827022E2295207F2025032EF6
:10176000322F22952F700226269532272327220F0B
:10177000220F220F202583812827022E2295207FE9
:101780002025032E322F22952F70022626953227F0
:101790002327220F220F220F202584812827022EA3
:1017A0002295207F2025032E322F22952F7002268E
:1017B000269532272327220F220F220F20258581ED
:1017C0002827022E2295207F2025032E322F2295B6
:1017D0002F700226269532272327220F220F220F51
:1017E000202586812827022E2295207F2025032E62
:1017F000322F22952F700226269532272327220F7B
:10180000220F220F202587812827022E2295207F54
:101810002025032E322F22952F700226269532275F
:101820002327220F220F220F202580852827022E12
:101830002295207F2025032E322F22952F700226FD
:10184000269532272327220F220F220F202581855C
:101850002827022E2295207F2025032E322F229525
:101860002F700226269532272327220F220F220FC0
:101870002025C90108950FB6F894A4B120913B0129
:101880002A2B24B921E030913B01203029F00000BF
:1018900025B1232B25B904C000000000000000C0C2
:1018A000000000000000309525B1232325B92EEA61
:1018B0002A95F1F72BEE30B735FF0AC0A4B9309165
:1018C0003B01309525B1232325B90FBE80E0089553
:1018D00000002A9581F721E030913B01203029F06A
:1018E000000025B1232B25B904C000000000000032
:1018F00000C0000000000000309525B1232325B969
:10190000000024E52A95F1F7FC018CE0619170E07C
:10191000660F771F616072609AE041E050E09A01C3
:1019200026233723232B30913B01203029F0000060
:1019300025B1232B25B904C000000000000000C021
:10194000000000000000309525B1232325B90000D8
:1019500021E52A95F1F7440F551F9A9501F78A95CD
:10196000A9F620B7206120BFA4B930913B01309582
:1019700025B1232325B90FBE81E00895CF92DF92D0
:10198000EF92FF920F931F936B017C0120E030E0F8
:1019900040E05FE40E942B1087FD0EC020E030E0A5
:1019A00040E05FE4C701B6010E94730E0E94B610CA
:1019B0008B019C01305806C0C701B6010E94B610C9
:1019C0008B019C01B801C9011F910F91FF90EF900D
:1019D000DF90CF900895A4E0B0E0E1EFFCE00C943C
:1019E0005C137C016A01FC018081823008F44AC1E9
:1019F000FB019081923008F442C1843079F4943034
:101A000009F040C1F7019181FB018181981709F428
:101A100039C1ABE0EA2EA1E0FA2E34C1943009F4CA
:101A20002EC1923091F4823009F02CC188E0F70188
:101A3000DA0101900D928A95E1F7FB018181F701AE
:101A400091818923FA0181831CC1823009F417C175
:101A5000F70182819381FB01A281B381F7010481A7
:101A6000158126813781FB0184809580A680B7800F
:101A7000FC01EA1BFB0BAF01F7FF04C0442755270D
:101A80004E1B5F0B403251050CF074C01E161F0632
:101A9000B4F524013501042E04C07694679457945C
:101AA00047940A94D2F749825A826B827C82412CF5
:101AB000512C3201439404C0440C551C661C771C05
:101AC0004A95D2F741E0441A51086108710848204C
:101AD00059206A207B20812C912C54018394452825
:101AE0004628472819F4812C912C540149805A80AA
:101AF0006B807C8084289528A628B72846C0EF2BC9
:101B000009F443C0840F951F28013901042E04C035
:101B100076946794579447940A94D2F749825A82EC
:101B20006B827C82412C512C3201439404C0440CC2
:101B3000551C661C771C4A95D2F741E0441A51089F
:101B400061087108402251226222732201E010E0F4
:101B500020E030E045284628472819F400E010E04E
:101B6000980149805A806B807C8004291529262998
:101B700037290BC0A817B90724F4812C912C5401E4
:101B800004C0CD0100E010E09801F7014181FB01A4
:101B90005181451709F446C0442349F02401350119
:101BA000401A510A620A730A9301820104C008199B
:101BB00019092A093B0937FD05C0F60111829383F3
:101BC00082830CC041E0F601418393838283309588
:101BD0002095109501951F4F2F4F3F4F048315837C
:101BE000268337830EC0880F991FAA1FBB1FF601DB
:101BF00084839583A683B78382819381019793839E
:101C00008283F60184819581A681B781AC01BD01F3
:101C100041505109610971094F3F5F4F6F4F7F4339
:101C200010F30CC0F601418393838283080D191DC4
:101C30002A1D3B1D048315832683378383E0F60129
:101C40008083448155816681778177FF1AC0DB01EB
:101C5000CA0181709927AA27BB2776956795579562
:101C60004795842B952BA62BB72B84839583A6832E
:101C7000B7838281938101969383828302C07B0123
:101C800001C07601C7012496E0E10C947813A0E22C
:101C9000B0E0EDE4FEE00C946A136D8F7E8F8F8FC1
:101CA00098A3298F3A8F4B8F5C8FBE016F5E7F4F59
:101CB000CE014D960E944512BE01675F7F4FCE0157
:101CC00049960E944512AE014F5F5F4FBE01675FAC
:101CD0007F4FCE0141960E94EB0C0E947B11A09693
:101CE000E2E00C948613A0E2B0E0E9E7FEE00C9499
:101CF0006A136D8F7E8F8F8F98A3298F3A8F4B8FAA
:101D00005C8FBE016F5E7F4FCE014D960E944512E3
:101D1000BE01675F7F4FCE0149960E9445128A85BA
:101D200091E089278A87AE014F5F5F4FBE01675FF1
:101D30007F4FCE0141960E94EB0C0E947B11A09632
:101D4000E2E00C948613A0E2B0E0E9EAFEE00C9435
:101D50005C136D8F7E8F8F8F98A3298F3A8F4B8F57
:101D60005C8FBE016F5E7F4FCE014D960E94451283
:101D7000BE01675F7F4FCE0149960E944512998947
:101D8000923008F412C08985823008F41AC0943069
:101D900021F4823009F4B4C008C0843021F49230B8
:101DA00009F4AEC00EC0923051F481E02A899A85C0
:101DB000291301C080E08A8BCE014196A3C08230F6
:101DC00051F481E02A899A85291301C080E08A872D
:101DD000CE01099697C08D889E88AF88B88C0D85F6
:101DE0001E852F853889E0E2F0E080E090E0DC019C
:101DF000C12CD12C760140E050E0BA0180FE18C021
:101E0000400F511F621F731F8C0D9D1DAE1DBF1D06
:101E1000412C512C3201439440175107620773073C
:101E200018F0412C512C3201840D951DA61DB71DB3
:101E3000CC0CDD1CEE1CFF1C37FF02C06894C0F800
:101E4000000F111F221F331FB694A79497948794F5
:101E50003197A1F62B893C89EB85FC852E0F3F1F1E
:101E60002E5F3F4F3C832B8321E0EA893A85E313C1
:101E700001C020E02A83EB81FC810CC080FF05C0FB
:101E800076956795579547957068B695A7959795F8
:101E900087953196B7FDF2CF9F010CC0880F991F2F
:101EA000AA1FBB1F77FD8160440F551F661F771F58
:101EB000215031090097A105E0E4BE0778F32B8398
:101EC0003C838C019D010F77112722273327003493
:101ED00011052105310559F487FD09C0452B462B15
:101EE000472B29F0805C9F4FAF4FBF4F80788D8389
:101EF0009E83AF83B88783E08983CE01019602C0B9
:101F00008BE091E00E947B11A096E0E10C947813A5
:101F1000A8E1B0E0EEE8FFE00C9464136D8B7E8BDB
:101F20008F8B988F298B3A8B4B8B5C8BBE01675FB5
:101F30007F4FCE0145960E944512BE016F5F7F4FD5
:101F4000CE0141960E9445129985923008F475C0E1
:101F50008981823008F474C02A853A8123272A8730
:101F6000943011F0923019F4981367C06CC084302B
:101F700039F41D861E861F86188A1C861B8604C09F
:101F8000823029F484E08987CE0109965EC08B8572
:101F90009C852B813C81821B930B9C878B874D8575
:101FA0005E856F857889CD80DE80EF80F8844C1562
:101FB0005D056E057F0538F4440F551F661F771FBA
:101FC00001979C878B87EFE1F0E000E010E020E0D4
:101FD00030E480E090E0DC014C155D056E057F0586
:101FE00040F0802B912BA22BB32B4C195D096E096D
:101FF0007F093695279517950795440F551F661F3E
:10200000771F319749F78C019D010F771127222700
:102010003327003411052105310559F487FD09C026
:10202000452B462B472B29F0805C9F4FAF4FBF4F6E
:1020300080788D879E87AF87B88BCE01099605C0C3
:10204000CE01019602C08BE091E00E947B11689660
:10205000E8E00C948013A8E1B0E0E1E3F0E10C9437
:102060006A136D8B7E8B8F8B988F298B3A8B4B8B62
:102070005C8BBE01675F7F4FCE0145960E94451283
:10208000BE016F5F7F4FCE0141960E944512898548
:10209000823058F08981823040F0BE016F5F7F4FFF
:1020A000CE0109960E94B41201C08FEF6896E2E05B
:1020B0000C948613A8E0B0E0E0E6F0E10C9468131D
:1020C00023E029838B019C01002737FD039511270D
:1020D00022273327402F0A83611571058105910559
:1020E00019F482E0898335C02EE130E03C832B83F4
:1020F000442371F061157105810520E8920771F1A3
:10210000002711279801061B170B280B390B02C05B
:102110008B019C01C901B8010E9491130197181607
:1021200019062CF00D831E832F83388712C0082ECA
:1021300004C0000F111F221F331F0A94D2F70D8312
:102140001E832F8338872EE130E0281B390B3C8318
:102150002B83CE0101960E947B1104C060E070E0E9
:1021600080E09FEC2896E4E00C948413ACE0B0E0AF
:10217000ECEBF0E10C94681369877A878B879C8776
:10218000BE016F5F7F4FCE0109960E944512898183
:10219000823091F1823080F1843041F48A81882349
:1021A00031F100E010E020E030E829C02B813C81D3
:1021B00037FD22C02F3131058CF78EE190E0821B74
:1021C000930B0D811E812F81388504C0369527958C
:1021D000179507958A95D2F78A81882381F03095E3
:1021E0002095109501951F4F2F4F3F4F08C00FEFBF
:1021F0001FEF2FEF3FE703C000E010E09801B801A8
:10220000C9012C96E4E00C948413A8E0B0E0EBE064
:10221000F1E10C9464138B019C011A826115710524
:102220008105910519F482E089835DC083E089838B
:102230004EE150E05C834B83C901B8010E949113C9
:10224000019797FF39C0EE27FF27E81BF90B41E004
:1022500050E060E070E00E2E04C0440F551F661F72
:10226000771F0A94D2F7415051096109710940233F
:10227000512362237323C12CD12C7601C394452BA7
:10228000462B472B19F4C12CD12C760104C036956E
:10229000279517950795EA95D2F70C291D292E2920
:1022A0003F290D831E832F8338872EE130E0281BC2
:1022B000390B3C832B8317C0009729F40D831E83B1
:1022C0002F83388710C0082E04C0000F111F221F53
:1022D000331F0A94D2F70D831E832F833887481B40
:1022E000590B5C834B83CE0101960E947B1128968B
:1022F000E8E00C9480130F931F93CF93DF93DC01DE
:1023000014964D915D916D917C9117971196EC917A
:1023100011978C91823020F460618FEF90E0A6C01D
:10232000843009F49EC0823009F495C041155105EE
:102330006105710509F492C012962D913C91139795
:1023400022388FEF38070CF058C0C2E8DFEFC21B0D
:10235000D30BCA31D1056CF58A019B010C2E04C048
:1023600036952795179507950A94D2F781E090E066
:10237000A0E0B0E00C2E04C0880F991FAA1FBB1F5D
:102380000A94D2F70197A109B10984239523A623C2
:10239000B72341E050E060E070E0892B8A2B8B2B63
:1023A00019F440E050E0BA01402B512B622B732B03
:1023B00003C040E050E0BA01DB01CA018F779927E2
:1023C000AA27BB2780349105A105B10539F447FF41
:1023D00009C0405C5F4F6F4F7F4F04C0415C5F4F4F
:1023E0006F4F7F4F81E090E041155105610520E47A
:1023F000720748F580E090E026C0203831058CF562
:10240000DB01CA018F779927AA27BB278034910562
:10241000A105B10539F447FF09C0405C5F4F6F4F1C
:102420007F4F04C0415C5F4F6F4F7F4F77FD04C00B
:10243000C90181589F4F07C0769567955795479575
:10244000C90180589F4F97E07695679557954795B6
:102450009A95D1F70BC080E090E005C080E090E055
:1024600005C08FEF90E040E050E0BA01982F9695BC
:10247000E0FB97F9362F80FB37F9642F752F832FF8
:10248000DF91CF911F910F910895CF92DF92EF923C
:10249000DC01FB01CC901196DC90119712968C9187
:1024A00012973FE7E32EE8226E2DA60170E0982FE9
:1024B000991F9927991F13962C91822F880F892B8A
:1024C00090E027FB222720F92183009729F5411569
:1024D00051056105710511F482E027C082E89FEF84
:1024E0009383828327E0440F551F661F771F2A9529
:1024F000D1F783E0808309C0440F551F661F771F03
:1025000082819381019793838283411551056105EF
:1025100080E4780788F320C08F3F910579F4411556
:1025200051056105710519F484E0808319C0E4FE4A
:1025300003C081E0808310C010820EC08F579109C4
:102540009383828383E0808387E0440F551F661F57
:10255000771F8A95D1F770644483558366837783A8
:10256000EF90DF90CF900895CF93FC01DB01908135
:10257000923008F452C08C91823008F44EC09430EE
:1025800071F4843039F411962C9130E08181281B4C
:10259000310948C08181882309F43FC03BC08430A1
:1025A00029F411968C91811138C034C0923019F4FD
:1025B0008230B9F735C0823069F3C18111968C91B0
:1025C0001197C8131DC02281338112968D919C9161
:1025D0001397821793070CF413C0281739070CF4CC
:1025E00017C0448155816681778114968D919D91A4
:1025F0000D90BC91A02D84179507A607B70718F476
:10260000C11108C00AC0481759076A077B0740F480
:10261000C11103C02FEF3FEF05C021E030E002C041
:1026200020E030E0C901CF9108950E94AD008DE512
:1026300090E0909305018093040165E770E08CE5DC
:1026400090E00E942B0380E090E00895A29FB001EB
:10265000B39FC001A39F01D0B29F700D811D1124B3
:10266000911D089597FB072E16F4009407D077FD6F
:1026700009D00E94461307FC05D03EF49095819541
:102680009F4F0895709561957F4F0895AA1BBB1BBE
:1026900051E107C0AA1FBB1FA617B70710F0A61B62
:1026A000B70B881F991F5A95A9F780959095BC0183
:1026B000CD0108952F923F924F925F926F927F9239
:1026C0008F929F92AF92BF92CF92DF92EF92FF9242
:1026D0000F931F93CF93DF93CDB7DEB7CA1BDB0BEE
:1026E0000FB6F894DEBF0FBECDBF09942A88398893
:1026F00048885F846E847D848C849B84AA84B9849A
:10270000C884DF80EE80FD800C811B81AA81B981A5
:10271000CE0FD11D0FB6F894DEBF0FBECDBFED01B9
:1027200008950E949A1384FF0895CB010E949A1382
:10273000805F0895AA27992329F4A85F982B11F4A4
:1027400080E10895903118F4AD5F9295A395990FAB
:10275000E8F78A2F992708958F929F92AF92BF92A0
:10276000CF92DF92EF92FF92CF93DF93EC016881DB
:1027700079818A819B81611571058105910521F41B
:1027800064E279ED8BE597E02DE133EF41E050E035
:102790000E94361449015A019B01AC01A7EAB1E439
:1027A0000E9423146B017C01ACEEB4EFA5019401EF
:1027B0000E943114C60ED71EE81EF91EF7FE06C091
:1027C00081E0C81AD108E10880E8F80AC882D982F5
:1027D000EA82FB82E894D7F8EE24FF24C601DF9159
:1027E000CF91FF90EF90DF90CF90BF90AF909F90F0
:1027F0008F9008950E94AC13089587E091E00E94A5
:10280000AC130895A0E0B0E0809307019093080115
:10281000A0930901B0930A010895F999FECF92BDE2
:1028200081BDF89A992780B50895262FF999FECF92
:102830001FBA92BD81BD20BD0FB6F894FA9AF99ADD
:102840000FBE019608950E942613A59F900DB49F78
:10285000900DA49F800D911D11240895B7FF0C9435
:1028600023140E942314821B930B0895052E97FBBB
:1028700016F4009407D057FD0DD00E94521407FCA7
:1028800009D07EF490958095709561957F4F8F4F1C
:102890009F4F089550954095309521953F4F4F4F4C
:1028A0005F4F0895A1E21A2EAA1BBB1BFD010DC0AC
:1028B000AA1FBB1FEE1FFF1FA217B307E407F507F0
:1028C00020F0A21BB30BE40BF50B661F771F881FCC
:1028D000991F1A9469F760957095809590959B0162
:0C28E000AC01BD01CF010895F894FFCFBA
:1028EC00AC00A900A800AA01000000000000000034
:0428FC0000000000D8
:00000001FF
